:400000000040002011000000B90A0000B90A000080B500AF00F054FD80B584B000AF021CFB1D1A70204A3B1C0B3312781A701F4A3B1C0A3312781A700423013BFB6018E0F2
:400040001B4B1868391C0B31FA68131C5B009B18C3185B780B70164B1868391C0A31FA68131C5B009B18C3189B780B70FB68013BFB60FB68002B0ADB0D4B1968FA68131CF1
:400080005B009B185B5CFA1D12789A42D8D9094B3A1C0B3212781A60074B3A1C0A3212781A60BD4604B080BDCCF1FF0FCDF1FF0FD40000201CFF0B4020FF0B4080B500AF47
:4000C0001F4B12221A600C20FFF7A6FF1D4B0C221A60052002F0B0FA1B4B1C4A1278D2B21A60052002F0C0FB02F060FBFA235B00181C02F095FB012002F068FB144B154A7B
:400100001A60154B8022D2051A60144B144A1A60144B144A126808218A431A60FA23DB00181C02F0FDFA104B181C02F09DFB0F4B802212061A60024B00221A60BD4680BD2F
:40014000300010402CFF0B4028FF0B40D9F1FF0F04010B40060000800C020B407C002E406A2D00006CF02E40DC05000008010B4080B582B000AF72B63D4B00221A60FB1D16
:4001800000221A7023E0FB1D1A78131C5B009B185B00384A9B183B603B681A78597809020A43997809040A43DB781B0613431A1C3B6819795B791B020B439BB2101C191C93
:4001C00000F002FDFB1D1A78FB1D01321A70FB1D1B78012BD7D9284A284B101C191C00F003FD274B00221A60264B00221A60264B80221A60254B8022D2031A60244B8022BA
:4002000012021A60234BC0221A60234BD82212041A60224B992212041A60214B802212061A60204B992212041A601F4B1E4A1278D2B202210A43D2B21A701C4B1B4A1278AC
:40024000D2B23C218A43D2B214210A43D2B21A70154B154A1278D2B216210A43D2B21A70FFF72CFF00F000FDBD4602B080BDC0466CF02E406C280100782801007C280100B2
:40028000000002400800044000020440080204400C020440000304400803044020500F4024500F4030500F4000700F4001700F4010B5064C2378002B07D1054B002B02D062
:4002C000044800E000BF0123237010BD58030020000000006428010008B5084B002B03D00748084900E000BF07480368002B03D0064B002B00D0984708BDC046000000008C
:40030000642801005C030020C80000200000000080B500AF00F034F802F0DEFC134B1B78181C00F01DFB124B1B78002B08D0114B181C00F09FFD02F0CFFC0D4B00221A7000
:400340000D4B1B78002B01D000F098FA02F0C4FC00F082FB094B1B78002B06D0074B00221A70002000F02CFDD6E7D5E7CC00002075030020BC2400207403002077030020A8
:4003800080B500AF62B6064B181C00F0D9FC00F05DFA044B181C02F0EBF8BD4680BDC046A9030000A90A000090B589B000AF786039603B1C1E3300221A807B68282B5CD04F
:4003C00006D8202B2ED0272B4BD0012B0FD0D4E0412B3BD002D82B2B0DD0CEE0422B00D1CAE01222FF32934200D1BEE0C5E0644B01221A70C1E0634B1B78052B0DD1624B49
:4004000001221A70614B1B78002B0AD1012002F07DF85B4B01221A70AFE05B4B02221A70ABE0AAE0574B1B78022B0BD03B1C08333A6813CA13C303CA03C33B1C0833181C7A
:4004400000F0B0F8504B02221A7096E0504A3B68111C1A1C0223081C111C1A1C02F023FC8BE03C1C1C344A4B186800F091FD031C2380454B03221A707FE03B1C1E330022F8
:400480001A8053E03B1C1E331A884249131C9B009B189B00CB185B6800221A703B1C1E331A883C49131C9B009B189B00CB185B68013300221A703B1C1E331A883549131CCC
:4004C0009B009B189B00CB185B68023300221A703B1C1E331A882F49131C9B009B189B00CB185B68033300221A703B1C1E331A882849131C9B009B189B00CB185B6804337A
:4005000000221A703B1C1E331A882249131C9B009B189B00CB185B68053300221A703B1C1E331A883B1C1E3301321A801A4B1B783A1C1E3212889A42A4D3174B00221A7060
:40054000124B00221A70154B00221A70144B00221A700D4B01221A70094B01221A700A4B1B78181C00F0FCF907E00C4B01221A70054B04221A7000E0C046BD4609B090BD7A
:4005800077030020F0250020CC00002075030020B82400200825002076030020740300207803002080B584B000AF78603B1C0D3301221A709F4B1B78092B00D936E13B1CA8
:4005C0000E3300221A8032E03B1C0E331A883B1C0E3319880B1C5B005B185B00964959189648131C9B009B189B00C31859603B1C0E331A889149131C9B009B189B00CB1840
:400600005A687B685B68101C191C062202F03CFB031C002B04D13B1C0D3300221A700DE03B1C0E331A883B1C0E3301321A80814B1B783A1C0E3212889A42C5D33B1C0D3318
:400640001B78002B00D1EDE07A4B1B781A1C794B1B78191C0B1C5B005B185B00764959187648131C9B009B189B00C3185960714B1B781A1C7B68197A7048131C9B009B18EA
:400680009B00C31808330A1C1A706A4B1B781A1C7B68D9686948131C9B009B189B00C31808335960634B1B781A1C7B6818786349131C9B009B189B00021C5A545D4B1B78EA
:4006C0001A1C7B6859785D48131C9B009B189B00C3180A1C5A70574B1B781A1C5749131C9B009B189B00CB185A687B685B681B781370504B1B781A1C5049131C9B009B188A
:400700009B00CB185B685A1C7B685B685B781370484B1B781A1C4949131C9B009B189B00CB185B689A1C7B685B689B781370414B1B781A1C4149131C9B009B189B00CB188E
:400740005B68DA1C7B685B68DB781370394B1B781A1C3A49131C9B009B189B00CB185B681A1D7B685B681B791370324B1B781A1C3249131C9B009B189B00CB185B685A1DCC
:400780007B685B685B7913702A4B1B781A1C7B68197C2A48131C9B009B189B00C31810330A1C1A707B685B68254A101C191C062202F06AFA031C002B2ED17B685B681A78B9
:4007C000204B1A707B685B685A781E4B5A707B685B689A781B4B9A707B685B68DA78194BDA707B685B681A79164B1A717B685B685A79144B5A710F4B1B781A1C0F49131C19
:400800009B009B189B00CB185A780E4B9A710E4B01221A7000F01EFB064B1B780133DAB2044B1A703B1C0D3301221A70BD4604B080BDC04676030020C424002008250020FE
:4008400000250020BC2400207503002080B500AF094B00225A71084BA0221A71064B5022DA70054B00229A70034B67225A70024B95221A70BD4680BD0025002080B500AFB5
:4008800001F01EFE031C002B29D1324B1B781A1C032313400AD12F4B1B7801221343DAB22C4B1A702C4B04221A7046E0294B1B781A1C0123134040D0274B1B78002B3CD1EC
:4008C000244B1B7801229343DAB2224B1A70214B1B7802221343DAB21E4B1A702DE01D4B1B781A1C0223134016D01C4B1B780133181C032102F096F90B1CDAB2174B1A7040
:40090000164B181C00F088F8124B1B7802229343DAB2104B1A7010E00E4B1B781A1C012313400AD00C4B1B78002B06D1094B1B7801229343DAB2074B1A70074B1B78002BB0
:4009400005D0054B1B78013BDAB2034B1A70BD4680BDC046790300207A0300207803002080B582B000AF021CFB1D1A70FB1D1B78022B0FD002DC012B05D045E0032B24D052
:40098000042B3AD040E0012001F0D2FF012001F0BDFD39E01E4B1B88013B9AB21C4B1A801B4B1B88002B0FD1012001F0C1FF184B3C221A8001F0CEFD031C5A425341DBB2A8
:4009C000181C01F0A3FD1FE01EE0124B1B88013B9AB2104B1A800F4B1B88002B0CD10C4B05221A8001F0B6FD031C5A425341DBB2181C01F08BFD07E006E0012001F086FD0C
:400A0000002001F095FFC046BD4602B080BDC046CE000020D0000020B0B584B000AF78603C1C0E340B4B7D681A785B781B021A4300231204120C1B0C1B041343181C002119
:400A400001222B1C00F0B2FB031C2380BD4604B0B0BDC046B824002090B583B000AFFC1D032002F031F9031C237072B6BC1D03F0D0FB031C2370FB1D1B78032B0AD1BB1D59
:400A80001B78042B03D0BB1D1B78062B08D101F019FF05E0BB1D1B78022B01D001F0F8FE62B6BD4603B090BD80B500AF01F0BAFD01F014FDBD4680BD80B500AFFEE7C04636
:400AC00080B586B000AF224B7B61224B3B61204B7B6135E03B691B68FB603B695B68BB603B699B683B6000237B600CE0FB681A68BB681A60BB680433BB60FB680433FB6012
:400B00007B6804337B607A683B689A42EED13B69DB683B6000237B6008E0BB6800221A60BB680433BB607B6804337B607A683B689A42F2D13B6910333B617B69013B7B616C
:400B40007B69002BC6D102F079F8FFF7E1FBFEE701000000982A010080B582B000AF154B144A126801218A431A6000237B600FE07B68032B04D8104B7A689200D35800E086
:400B80000E4B0F4A796889008B507B6801337B607B682F2BECD9FFF7EBFA0A4B00221A60044B044A126801210A431A60BD4602B080BDC0460000104000000000B90A000073
:400BC00000000020C000002080B582B000AF786039607A683B68101C00211A1C02F06CF8BD4602B080BDC04680B586B000AF7860396000233B6100237B612EE07B699B0042
:400C00007A68D3181B68BB603B1C0F33BA681A70BB68FF229343BB6017E03B695B003A68D3181B781A1CBB68D3183A69520039688A1852781A703B6901333B613B1C0F33DC
:400C40001A783B1C0F33013A1A703B1C0F331B78002BE2D17B6901337B617B69002BCDD0BD4606B080BDC04680B500AF054B03221A60054B03221A60044B00221A60BD462E
:400C800080BDC0463000304030003140000E3F4080B500AF194B00221A70194B00221A70184B00221A70184B5A88184B1A80164B9A88164B5A80144B9A79144B1A73124B55
:400CC000DA79124B1A71114B4022DA810F4B50221A820E4B00225A820C4BC82252009A820A4B0022DA82094B012252421A83084B1E221A8000F00EF8BD4680BD14260020FA
:400D00000026002012260020D8000020D4250020EE25002080B500AF074B181C00210A2201F0CAFF054B181C0021062201F0C4FF00F006FABD4680BD08260020F425002028
:400D400090B585B000AF78603B1C0E3301221A80154B1B78002B04D1FFF79AFF124B01221A707B68002B18D0104B7A681A603C1C0E340F4A0F4B101C191C172201F0C2FF4B
:400D8000031C23803B1C0E331B88002B05D10A4B01221A70094B08221A703B1C0E331B88181CBD4605B090BD80030020D02500201514000088030020F0250020F1250020C0
:400DC00090B585B000AF021CFB1D1A70FB1D1B78002B09D11C4B1E221A811B4B50225A80194B08229A800EE0FB1D1B78012B0AD1154B96221A81144B802212015A80124B20
:400E0000E122D2009A80114BFA1D12781A703C1C0E340D4B181C0BF0CDFB031C23803B1C0E331B88002B07D1094B1B78DBB204221343DAB2064B1A703B1C0E331B88181C8D
:400E4000BD4605B090BDC046D8000020122600201426002080B500AF0BF0DAFB044B1B78DBB208221343DAB2014B1A70BD4680BD1426002090B585B000AF7860284B1B7817
:400E8000052B05D03B1C0E33832252001A8040E07B68002B04D13B1C0E3301221A8038E03B1C0D3300221A7011E03B1C0D331B783A1C0D32127879688A5C1A49CB185A713F
:400EC0003B1C0D331A783B1C0D3301321A703B1C0D331B78052BE8D97B689A79114BDA723C1C0E340F4B181C0BF012FB031C23803B1C0E331B88002B0BD1094B04221A7084
:400F0000094B1B88002B04D0074B1B88181C08F009FE3B1C0E331B88181CBD4605B090BDF0250020D4250020EE25002090B583B000AFBC1D0BF0DEFA031C2380094B1B8812
:400F4000002B01D008F008FEBB1D1B88002B02D1054B05221A70BB1D1B88181CBD4603B090BDC046EE250020F025002080B582B000AF78607B681B781A1C7B6801331B7899
:400F80001B029BB213439BB2181CBD4602B080BD90B585B000AF3B1D18802B4B1B78022B05D03B1C0C33832252001A8045E0FFF7B1FE264A3B1D111C1A1C0223081C111C48
:400FC0001A1C01F070FE224B00221A703B1C0F3300221A7014E03B1C0F331A78131C5B009B185B001B4A9B18181C0021042201F063FE3B1C0F331A783B1C0F3301321A70E1
:401000003B1C0F331B78022BE5D93C1C0C343B1D18680CF0C1F8031C23803B1C0C331B88002B0AD10C4B01221A700C4B1B78DBB202221343DAB2094B1A703B1C0C331B88DB
:40104000181CBD4605B090BDF02500200426002013260020F0000020F12500201426002080B582B000AF78607B68DA880D4B9A4215D10D4B5B88002B08D17B689A880A4BD9
:401080005A807B689A78084B1A7008E0074B1B687A68063286214900081C111C9847BD4602B080BD052A0000F4250020D025002080B582B000AF78607B689A880B4B9A42F9
:4010C00011D10B4B9B88002B04D17B685A88084B9A8008E0074B1B687A68043286214900081C111C9847BD4602B080BD02290000F4250020D025002080B582B000AF786015
:401100000C4B5A887B689B899A420FD10A4B1B68832251007A68081C111C9847074B1B78DBB201229343DAB2044B1A70BD4602B080BDC046F4250020D02500201426002063
:4011400080B500AF024B00225A80BD4680BDC046FC25002080B582B000AF78607B68DA880F4B9A4219D10F4B5B88002B15D10D4B5B88002B08D17B689A880A4B5A807B68C4
:401180009A78084B1A7008E0074B1B687A68063286214900081C111C9847BD4602B080BD062A0000FC250020D025002090B589B000AF3C1C0C3420807B603B1C0B33197073
:4011C0003B1C0A331A703B1C1E3301221A80214B1B78052B05D03B1C1E33832252001A8030E07B68002B2DD03B1C0B331B78002B28D13B1C0A331B78012B23D17B681B780B
:40120000022B1FD8144B5B88002B1BD03B1C10337A681A603B1C0A331B789AB23B1C10339A800D4B5A883B1C10331A813C1C1E343B1C0C333A1C10321868111C0CF002F82B
:40124000031C23803B1C1E331B88181CBD4609B090BDC046F1250020FC25002080B582B000AF7860BD4602B080BDC04680B582B000AF7860BD4602B080BDC04680B582B074
:4012800000AF7860BD4602B080BDC04680B582B000AF7860BD4602B080BDC04680B500AF094B00225A70084B00221A70074B1B78052B03D1054B07221A7002E0034B082260
:4012C0001A70BD4680BDC04604260020F125002080B582B000AF78607B681B78032B3ED1254B1B78DBB21A1C0223134037D0234B1B78022B10D002DC012B05D024E0032B99
:4013000012D0042B18D01FE01D4B1B680822FF32101C0021984717E0194B1B6884225200101C002198470FE0154B1B680A22FF32101C0021984707E0114B1B688522520027
:40134000101C00219847C0460B4B1B78DBB202229343DAB2084B1A70084B00221A707B681B78042B05D1074B1B78042B01D1FFF7DDFDBD4602B080BD14260020F1250020B0
:40138000D0250020F025002080B500AFBD4680BD80B584B000AF78603B1C0E3300221A707B689B79002B1CD13B1C0F3300221A7012E03B1C0F331B787A68D35C002B04D009
:4013C0003B1C0E3301221A700BE03B1C0F331A783B1C0F3301321A703B1C0F331B78052BE7D93B1C0E331B78181CBD4604B080BD80B582B000AF021CBB1D1A80BD4602B072
:4014000080BDC04680B582B000AF7860BD4602B080BDC04680B584B000AF021C3960FB1D1A70A64B1B78DBB201221343DAB2A34B1A70FB1D1B78712B00D924E19A00A04BDA
:40144000D3181B689F463B1C0C3307221A703B1C0C3300225A703B1C0C33181C02F008FF3B1C0C3307221A703B1C0C3301225A703B1C0C33181C02F0FBFE924B1B68181C76
:40148000FFF786FF031C002B05D08E4B1B68181C01F026FC0FE08C4B1A788C4B1A708C4B1A788A4B5A708B4B1A78884B9A70874B181C01F015FC03200AF038FF864B052295
:4014C0001A70E1E03B68181CFFF702FFDCE03B681A78824B1A70D7E0784B1B78DBB21A1C202313400ED17E4B1B78102B02D17C4B0522DA707B4B1A78794B101C191C0AF02D
:401500002DFEC1E0C0E03B68181CFFF77BFFBBE03B68181CFFF776FF734B1B88002B01D008F01AFB6C4B02221A70ADE06A4B05221A70A9E0684B1B78022B34D05F4B1B781C
:40154000DBB21A1C012313402DD05C4B1B78DBB21A1C042313400BD05F4B03221A70574B1B78DBB204229343DAB2544B1A701AE0524B1B78DBB21A1C082313400BD0564B2F
:4015800005221A704D4B1B78DBB208229343DAB24A4B1A7007E0504B1B78032B03D14E4B05221A7070E06FE03B681B88181CFFF71FFF69E04B4A3B68111C1A1C0223081C5C
:4015C000111C1A1C01F06FFB484B00221A70FFF7DBFE59E0FFF762FE56E03B685B88162B05D83B1C0E333A6852881A8003E03B1C0E3317221A803B683A1C0E321288198846
:4016000000230904090C1B0C1B040B43181C111C0CF00CF938E03B68181C00F06BF833E03B68181C00F020FA2EE03B68181C00F0D1FC29E03B68181C00F0DEFD24E03B6845
:40164000181CFFF713FE1FE03B68181CFFF754FD3B68181CFFF712FE184B1B78DBB21A1C0123134004D13B6818680BF05BFD0BE00AE03B68181CFFF709FE05E03B68181C55
:40168000FFF7ECFD00E0C0460C4B1B78DBB21A1C112313400FD0094B1B78DBB201229343DAB2064B1A70124B1B68FA1D11783A68081C111C9847BD4604B080BD14260020DE
:4016C00080280100EC0000207CF1FF0FE40000207DF1FF0F7BF1FF0FF0250020002600200401002004260020EE250020F1250020D025002080B586B000AF786000233B61A7
:40170000754B1B78012B00D0E2E0744B1B78DBB21A1C0223134000D1DAE03B1C0C337A6812891A803B1C0C331B88062B05D03B1C0C331B88142B00D0C3E03B1C0A337A6833
:4017400052891A803B1C143300221A8085E07B685A683B1C14331B88D3183B613B1C0C331B88062B00D06EE03B1C0F3300221A703B1C173300221A705BE03B1C17331A7840
:401780005749131C5B009B185B00CB189A883B699B889A4246D13B1C17331A785049131C5B009B185B005B5A002B1AD13B1C17331A784B49131C5B009B185B003A69C91820
:4017C0000423081C111C1A1C01F06DFA454B1B780133DAB2434B1A703B1C0F3301221A7020E03B1C17331B78012B0ED83B1C17331B785A1C3A49131C5B009B185B00CB18B4
:401800009A883B699B889A420CD0374B1B683A6904320C21FF31081C111C98473B1C0F3301221A703B1C17331A783B1C173301321A703B1C17331B78022B04D83B1C0F33EF
:401840001B78002B99D03B1C1433391C14313A1C0C32098812888A181A803A1C14323B1C0A3312881B889A4200D270E73B69002B1ED03B695A881D4B9A4219D1164B0222A6
:401880001A70184B00221A7000F032F8031C002B0ED0154B1B6884225200101C002198470E4B1B78DBB202229343DAB20B4B1A700A4B1B78DBB201229343DAB2074B1A7091
:4018C00006E0094B1B680822FF32101C00219847BD4606B080BDC046F125002014260020F000002013260020D0250020FFFF000090B583B000AF05E01A4B1B780133DAB2D8
:40190000184B1A70174B1B78022B0AD8154B1B781A1C1549131C5B009B185B005B5A002BEAD0104B1B78022B11D80E4B1B781A1C131C5B009B185B000B4A9A18BC1D0B4B09
:401940001868111C0BF040FC031C238003E0BB1D802252001A80BB1D1B88181CBD4603B090BDC04613260020F00000200426002080B582B000AF78607B68DB88364A9B18A6
:40198000042B00D963E09A00344BD3181B689F46334B1B88002B04D17B689A88304B1A8056E0304B1B687A68063286214900081C111C98474CE02A4B5B88002B04D17B6860
:4019C0009A88274B5A8043E0264B1B687A68063286214900081C111C984739E0204B9B88002B04D17B689A881D4B9A8030E01D4B1B687A68063286214900081C111C9847C5
:401A000026E0174BDB88002B04D17B689A88144BDA801DE0134B1B687A68063286214900081C111C984713E00D4B1B89002B04D17B689A880A4B1A810AE00A4B1B687A687D
:401A4000063286214900081C111C984700E0C046BD4602B080BDC04600D6FFFF482A010008260020D025002080B592B000AF7860CE4B1B78DBB21A1C0223134000D124E2CA
:401A80003B1C3E337A6812891A803B1C3C337A6852891A807B685B683B64C54B1B78032B00D0E7E03B1C463300221A80D8E03B6C181CFFF75BFA031C1A1C3B1C24331A8076
:401AC0003B6C02333B643B6C1A783B1C24339A703B6C01333B643B6C181CFFF747FA031C1A1C3B1C24339A803B6C02333B643B1C3E331B88152B12D13B1C243302229A75E7
:401B00003A1C2A323B6C111C1A1C1023081C111C1A1C01F0C8F83B6C10333B643BE03B1C3E331B88072B36D13B1C243301229A753B6C181CFFF71AFA031C1A1C3B1C24336E
:401B4000DA803B6C02333B649A4B1B781A1C9A49131C5B009B185B00CB189B88974A93420DD0974A934210D0C0225201934200D011E03B1C2433181CFFF7FAFE0BE03B1C5B
:401B80002433181CFFF76CFA05E03B1C2433181CFFF7E0FAC0463B1C24339988854B1B781A1C8548131C5B009B185B00C3185B88994243D17F4B1B780133DAB27D4B1A70B8
:401BC00000F090F9031C002B37D00222FF3293422BD1774B04221A70764B00221A7000F0C1FA031C002B1ED081225200934212D16F4B05221A70734B1B681222FF32101C49
:401C000000219847694B1B78DBB202229343DAB2664B1A7008E06B4B1B6885225200101C0021984700E0C04608E0664B1B680A22FF32101C0021984700E0C0465B4B1B781F
:401C4000DBB201229343DAB2584B1A703B1C4633391C46313A1C3E32098812888A181A803A1C46323B1C3C3312881B889A4200D21DE72AE14E4B1B78022B00D025E13B1C48
:401C8000463300221A8017E13B6C181CFFF76EF9031C1A1C3B1C0C331A803B6C02333B643B6C181CFFF762F9031C1A1C3B1C0C335A803B6C02333B643B6C181CFFF756F933
:401CC000031C1A1C3B1C0C339A803B6C02333B643B1C3E331B88062B04D13B1C0C3302229A7574E03B1C3E331B88082B00D06EE03B1C0C3301229A753B6C181CFFF736F952
:401D0000031C1A1C3B1C0C33DA803B6C02333B643B1C443300221A8034E03B1C44331A882549131C5B009B185B00CB189A883B1C0C33DB889A421ED13B1C44331A881E492F
:401D4000131C5B009B185B005B5A002B13D13B1C44331A881849131C5B009B185B00381C0C300222C91882180423081C111C1A1C00F099FF0BE03B1C44331A883B1C443310
:401D800001321A803B1C44331B88022BC5D9094B1B781A1C0849131C5B009B185B00CB189B881A1C084B9A4210D010E014260020F125002013260020F000002001180000C7
:401DC00002180000D025002012180000C0463B1C0C3319883E4B1B781A1C3E48131C5B009B185B00C3185B88994253D1384B1B780133DAB2364B1A70FFF77AFD031C002B88
:401E000047D080225200934233D1334B03221A702F4B00221A7000F065F8031C002B26D00222FF32934212D12B4B05221A702B4B1B681222FF32101C00219847284B1B781A
:401E4000DBB202229343DAB2254B1A7010E0234B1B680A22FF32101C00219847204B1B78DBB202229343DAB21D4B1A7000E0C04610E01A4B1B6884225200101C0021984706
:401E8000174B1B78DBB202229343DAB2144B1A7000E0C046124B1B78DBB201229343DAB20F4B1A703B1C4633391C46313A1C3E32098812888A181A803A1C46323B1C3C3308
:401EC00012881B889A4200D2DEE6BD4612B080BD13260020F0000020F1250020D02500201426002090B583B000AF05E01D4B1B780133DAB21B4B1A701A4B1B78022B0AD865
:401F0000184B1B781A1C1849131C5B009B185B005B5A002BEAD0134B1B78022B18D8114B1B78181CBC1D114A0F49031C5B001B185B00585ACB185B881B04191C01430023EA
:401F40000B1C1068191C0BF00BF9031C238003E0BB1D0222FF321A80BB1D1B88181CBD4603B090BD13260020F00000200426002080B582B000AF3B1C00221A803B1C00221B
:401F80005A80114B1B78002B09D1104B5B8801339AB23B1C1A800E4B1A893B1C5A803B1D3A1C12681A603A1D002311880904090C1B0C1B040B43528812041B041B0C134380
:401FC000181CBD4602B080BD13260020F4250020F000002080B58AB000AF78603B1C083300225A805A4B1B78042B00D0ADE0594B1B78DBB21A1C0223134000D1A5E03B1CB2
:402000001E337A6812891A807B681A7B3B1C08331A753B1C08337A6812881A803B1C08331B7D012B04D13B1C263304221A8003E03B1C263312221A807B685B683B623B1C61
:40204000243300221A803EE03B6A181CFEF78EFF031C1A1C3B1C08335A803B6A02333B623B1C08331B7D022B0ED13A1C0C323B6A111C1A1C1023081C111C1A1C00F013FE0F
:402080003B6A10333B6214E03B6A181CFEF76EFF031C1A1C3B1C08339A803B6A02333B622D4B1B78002B04D13B1C0833181CFEF7FFFF3B1C2433391C24313A1C2632098899
:4020C00012888A181A803A1C24323B1C1E3312881B889A42B8D33B1C08335A881F4B1B889A422AD11C4B1B780133DAB21A4B1A7000F038F8031C002B1ED0812252009342EF
:4021000012D1134B05221A70154B1B681222FF32101C002198470F4B1B78DBB202229343DAB20C4B1A7008E00D4B1B6885225200101C0021984700E0C046064B1B78DBB219
:4021400001229343DAB2034B1A70BD460AB080BDF1250020142600201326002020100020D025002090B583B000AFFFF701FF031C1A1C3B1C1A600BE01C4B1B780133DAB2D2
:402180001A4B1A70FFF7F4FE031C1A1C3B1C1A603B1C1B88012B09D03B1C5B88002B05D03B1C1A883B1C5B889A4203D90F4B1B78002BE1D00D4B1B78002B0DD1BC1D0C4B11
:4021C0003A1C1868111C0AF0B5FF031C23803B1C5A88084B1A8003E0BB1D812252001A80BB1D1B88181CBD4603B090BD13260020042600202010002080B582B000AF786069
:40220000AA4B1B78DBB21A1C0223134000D149E17B689B790A2B00D044E1A54B1B78052B00D93EE19A00A34BD3181B689F46A04B02221A70A04B00221A70FFF759FB031CA0
:40224000002B4ED08022520093423AD19B4B1B681022FF32101C00219847954B03221A70954B00221A70FFF73DFE031C002B26D00222FF32934212D18D4B05221A708F4B4D
:402280001B681222FF32101C00219847874B1B78DBB202229343DAB2844B1A7010E0874B1B680A22FF32101C002198477F4B1B78DBB202229343DAB27C4B1A7000E0C046C4
:4022C00010E07E4B1B6884225200101C00219847764B1B78DBB202229343DAB2734B1A7000E0C046714B1B78DBB201229343DAB26E4B1A70D6E0704B1B780133DAB26E4BC8
:402300001A70FFF7F5FA031C002B3FD080225200934233D1654B1B78DBB201229343DAB2624B1A70624B03221A70634B00221A70FFF7D8FD031C002B1ED00222FF32934299
:4023400012D15B4B05221A705C4B1B681222FF32101C00219847554B1B78DBB202229343DAB2524B1A7008E0544B1B680A22FF32101C0021984700E0C04608E04F4B1B687D
:4023800084225200101C0021984700E0C046474B1B78DBB201229343DAB2444B1A7081E0454B1B780133DAB2434B1A70FFF79AFD031C002B37D00222FF3293422BD13C4BDC
:4023C00004221A703C4B00221A70FFF7CBFE031C002B1ED081225200934212D1344B05221A70364B1B681222FF32101C002198472E4B1B78DBB202229343DAB22B4B1A7072
:4024000008E02E4B1B6885225200101C0021984700E0C04608E0294B1B680A22FF32101C0021984700E0C046204B1B78DBB201229343DAB21D4B1A7034E01F4B1B78013318
:40244000DAB21D4B1A70FFF78DFE031C002B1ED081225200934212D1154B05221A70174B1B681222FF32101C002198470F4B1B78DBB202229343DAB20C4B1A7008E00F4BCE
:402480001B6885225200101C0021984700E0C046064B1B78DBB201229343DAB2034B1A7000E0C046BD4602B080BDC04614260020F12500205C2A010013260020D02500205D
:4024C00080B500AF044B1A6880231340DB09DBB2181CBD4680BDC0460402044080B582B000AF094B1B68DAB2FB1D7F218A431A70054BFA1D12781A60FB1D1B78DB09DBB2ED
:40250000181CBD4602B080BD1002044080B584B000AF021CFB1D1A700D4B1B68D9B23B1C0F337F220A401A70FB1D1B78DB01D9B23B1C0F333A1C0F3212780A431A70044BE1
:402540003A1C0F3212781A60BD4604B080BDC0460003044080B500AF044B1A6880231340DB09DBB2181CBD4680BDC0460403044080B582B000AF786000F04AF87B68181C67
:4025800000F008F8032000F011F800F037F8BD4602B080BD80B582B000AF7860024B7A689A64BD4602B080BD0000002090B585B000AF021CFB1D1A701623FB603C1C0B34BD
:4025C00000F043F8031C23700A4B0A4A11680A4A1140FA1D1078FA68041C9440221C0A431A603B1C0B331B78181C00F032F8BD4605B090BD00E400E0FFFF3FFF80B500AFDE
:40260000024B04221A60BD4680BDC04600E100E080B500AF024B04221A60BD4680BDC04680E100E080B500AF024B04221A60BD4680BDC04680E200E00230800803D001382F
:40264000FDD1C046C046C0467047EFF3108072B6704780F31088704780B500AF0B4B0B4A126801218A431A60094B094A126830218A4310210A431A60054B054A12680721C6
:402680008A4301210A431A60BD4680BD00F02E4000FF2E4080B500AF0E4B0E4A126802218A431A600C4B0C4A126807218A4302210A431A60084B084A126830218A4320215C
:4026C0000A431A60034B034A126801210A431A60BD4680BD00F02E4000FF2E4090B585B000AF78603C1C0F34FFF7AFFF031C2370094B796807220A40D104074A1068074A81
:4027000002400A431A603B1C0F331B78181CFFF7A0FFBD4605B090BD00010B40FFFFC7FF80B584B000AF78600023FB60154B154A126801210A431A60134B144A1A60144B61
:40274000134A1268802109020A431A607B68002B13D01023FB600DE0012000F085F800F019F8031C002B02D00023FB6005E07B68013B7B607B68002BEED1FB68181CBD4634
:4027800004B080BD60F02E4078002E400220000010002E4080B500AF034B1A6801231340181CBD4680BDC0460C002E4080B500AFFFF752FF044B044A1268802109060A4386
:4027C0001A60BD4680BDC04600F02E4080B584B000AF78600C4B1A6801231340FB607B68002B02D0012B03D005E0FFF735FF06E0FFF750FF03E0002000F008F8C046FB68AB
:40280000181CBD4604B080BD00F02E4080B582B000AF021CFB1D1A7001BEBD4602B080BD80B582B000AF786008E00C4B1B68181CFFF702FF7B680A4A9B187B607A68802366
:402840001B029A42F1D8074B1B687A685343181CFFF7F2FEBD4602B080BDC046140100200080FFFF0C01002080B582B000AF021CBB1D1A80BB1D1B88044A12785343181C94
:40288000FFF7DAFEBD4602B080BDC0461001002090B583B000AFFC1DFFF7D7FE031C2370074B074A126804218A431A6030BFFB1D1B78181CFFF7CDFEBD4603B090BDC04643
:4028C00010ED00E090B583B000AFFC1DFFF7BDFE031C2370114B114A1268520052081A600F4B104A128892B21A600F4B0E4A126804210A431A600D4B1B683B600220FFF74F
:40290000EDFE30BF094B3A681A60FB1D1B78181CFFF79FFEBD4603B090BDC04600000B400C000B4052F1FF0F10ED00E000010B4080B584B000AF021CFB1D1A700E4B1B6802
:40294000DAB23B1C0F3340218A431A70FB1D1B789B01DAB240231340D9B23B1C0F333A1C0F3212780A431A70034B3A1C0F3212781A60BD4604B080BD0003044080B582B04A
:4029800000AF78600A1CBB1C1A80BB1C1A887B681A60BD4602B080BD80B582B000AF78600A1CBB1C1A80BB1C1A887B681A60BD4602B080BD80B582B000AF021CBB1D1A803E
:4029C000BB1D1B88181CFFF74FFFBD4602B080BD80B500AF00F068F8BD4680BD80B500AF00F06CF8BD4680BD80B500AF00F066F8044B181C00F024F8022000F02DF8BD460B
:402A000080BDC046D12A000080B500AF024B181C00F004F8BD4680BDD12A000080B582B000AF786000F04AF87B68181C00F008F8022000F011F800F037F8BD4602B080BD79
:402A400080B582B000AF7860024B7A681A67BD4602B080BD0000002090B585B000AF021CFB1D1A700623FB603C1C0B34FFF7EDFD031C23700B4B0B4A1268C021101C884313
:402A8000011CFA1D1078FA68041C9440221C0A431A603B1C0B331B78181CFFF7DAFDBD4605B090BD0CE400E080B500AF024B802252011A60BD4680BD00E100E080B500AF7C
:402AC000024B802252011A60BD4680BD80E100E080B500AF0FF0B2FEBD4680BD002934D00123002210B488422CD301242407A14204D2814202D209011B01F8E7E400A1425A
:402B000004D2814202D249005B00F8E7884201D3401A1A434C08A04202D3001B5C0822438C08A04202D3001B9C082243CC08A04202D3001BDC082243002803D01B0901D013
:402B40000909E3E7101C10BC7047002801D00020C04307B4024802A14018029003BDC046D90000000029F0D003B5FFF7B9FF0EBC4243891A1847C046002941D010B4041CB9
:402B80004C40A44601230022002900D54942002800D5404288422CD301242407A14204D2814202D209011B01F8E7E400A14204D2814202D249005B00F8E7884201D3401A34
:402BC0001A434C08A04202D3001B5C0822438C08A04202D3001B9C082243CC08A04202D3001BDC082243002803D01B0901D00909E3E7101C6446002C00D5404210BC704783
:402C0000002806D003DB0020C043400801E08020000607B4024802A14018029003BDC046190000000029EBD003B5FFF7A7FF0EBC4243891A1847C0467047C04670B50E4B8B
:402C40000E4D0024ED1AAD101E1CAC4204D0A300F35898470134F8E70FF00CFF084B094D0024ED1AAD101E1CAC4204D0A300F35898470134F8E770BD802A0100802A010039
:402C8000802A0100882A010030B50023934208D0C55C0133CC18013C2478A542F6D0281B00E0002030BD10B50023934203D0CC5CC4540133F9E710BD031C8218934202D001
:402CC00019700133FAE7704710B501F04FFA10BD10B501F061FA10BD10B500F0DBF810BD10B50749044609780220002907D1204601F078FA002802D1204609F0DDFB10BDB5
:402D000034020020F7B51F4E0024307815460F46002804D00824B76075802046FEBD002F00D1012401F038FA0098002805D0172D03D301204002854201D90124EBE7002C35
:402D4000E9D12946384600F023F80400E3D1706800F01CF80400DED1706800F015F80400D9D101F021FA0400D5D1009806F098FE0400D0D106F0AAFE0400CCD10120307058
:402D8000C9E70000180100200020704700207047F8B50D4607460026FFF736FEFFF71EFE00F02EFA040065D100F0A0FB040061D13449084600F0BCFD0404240C5AD1A80734
:402DC00005D0A807800F0421081A401985B2172D02D968002E3886B22B48301881B2384601F0A8F8040045D1284F03460246002825D127495E008E5B294610318E4207D970
:402E00009000C01941800221521C4170D2B215E08E420BD10020787690001D49C0194680891FC95C891C4170012012E0052A06D116480646143641830220707101201449E9
:402E40005E008E5B9100C9194E80114EB61FF65C4E705B1C521CDBB2D2B2062BC7D30B4800F06CF8002C05D100F084F807490120891E087000F0D6F9002C01D0FF20F8BD90
:402E80000020F8BDA92E0000940C000026010020062B010010B503480078012801D100F0D9FE10BD240100207047000010B5011F0878034A8000105800F0DCFF10BD000008
:402EC0002410002010B5044604498000085800F03FFF002801D00470001D10BD2410002038B5044692B2C9B2684600F057FF024AA1000098505038BD2410002070B50B4998
:402F0000064600204C6805466178002908D06188B14202D32078FFF7D5FF002804D1241D6D1CEDB2082DEFD370BD00004801002010B5002801D0FFF7B9FF10BD70B50B4E8F
:402F40000446002570606178002905D062882078121D0023FFF7C4FF6D1C241DEDB2082DF1D3024800F0D8FFB06070BD48010020002070471CB5002469460C7014200190D9
:402F80002346054A05480DF05BF804480068401C00D1FF2420461CBDF12F0000540100203EB5124A0146FF2000230124126800290DD0012914D0042908D1042069460093ED
:402FC00008814B8110460DF036F880B23EBD6846009304814381694610460DF027F8F4E768460093048143816946EBE75401002070B54589046841680089030000F026F826
:4030000006240408081D2124002005F0EFFB1BE0022908D0C8B22A4621460BF067FA2046FFF786FF10E002202A4621460BF05EFA2946204600F018F806E000200CF0F4FC62
:4030400002E020460DF082F8002070BD30B47446641E2578641CAB4200D21D46635D5B00E31830BC18470000014B0022DB6818475801002070B5448905680089022803D016
:40308000032809D0FF2070BD2246094C0023A46829460120A04708E0FFF71AFE241DA2B200232946022006F0DEFB002070BD00005801002070470000024800214160018045
:4030C000418070475801002070B50C46002186B016460391012802D0022859D116E003A9012006F018FC01281BD1039D324621462846FFF7D8FD00952878019002206946A1
:4031000008814E816846FFF7B5FF41E0214D002B686809D0049004A9022006F0FCFB01281DD0022006B070BD002812D0298840182146FFF7B8FD28880024801980B22880A5
:403140006988091D884206D12C801348FFF792FF03E00320E6E788421AD96C6018E004986860E278A378110219430B4A698000231060E3565360032313815181A17881701A
:40318000E178C1706178417021780170042028800020C7E758010020441000203EB515460C46022803D004280CD000203EBD0091019002206946088107484A8100680CF0B0
:4031C0003AFF07E00BF092F9044B0022DB6829462046984701203EBD5401002058010020014AD1609060704758010020034801688068081A0A214843000970475010002067
:4032000010B5FFF7F1FB542204490548FFF74BFD03490120C870002010BD0000162B0100A012002010B5FFF7D3FB10BD70B5134C2368002B08D0207B1149C20705D04008B0
:40324000400020738868A08070BD88680B4AA18880B29268814203D90A4D691A091802E0814202D2411A5118A160A080A0689842EAD300F015F80CF0FBFE70BD501000206E
:40328000C0102E40FFFF000010B508461946FFF7A7FF10BD704710B5FFF780FF10BD000003480021016041608160C160704700005010002010B502000DD0FFF7F1FF074CB5
:4032C0000321207B0843207310010A21FFF74AFC2060002010BDFF2010BD00005010002000B504480A21806848430209FFF7D8FF104600BD501000200248007B8007C00FBB
:40330000704700005010002070B558490868002802DA574B01221A70022290430860554800695249C00B4031096A08426CD0012000F0AAFA4F4850497C30FFF72DFB4B4856
:403340000E216C30FFF728FB4A4820218430FFF723FB484814219C30FFF71EFB4548FF21C131A430FFF718FB4248FF212F31B030FFF712FB3F484149BC30FFF70DFB3D4845
:403380003F49AC30FFF708FB3D493A48491CB430FFF702FB37483B49B830FFF7FDFA35483949CC30FFF7F8FA324838490830FFF7F3FA30483649A830FFF7EEFA2D483549FB
:4033C0008830FFF7E9FA2B4833498C30FFF7E4FA28481921C9029030FFF7DEFA2F4D287E697E0C020443A87FE97F2D4A090201432C48914201D1072C08D035229201914226
:4034000008D1042C05D005E0FF2070BD0146042400E0014617486C30FFF7BEFA154821467430FFF7B9FAA87EE97E0902014301204003814201D0002900D11B490D487830FE
:40344000FFF7AAFA2A7F687F010218481143814204D01748814201D0052901D113490A3904488030FFF798FA002070BD00F02E406801002000002E4055650000320300002D
:403480002F3F00003102000010520000EC160000FA12000031D000003AE30000C0F0FF0F580B0000580D0000022000000F0F00000505000070B50646581C80B245086D003C
:4034C000002408E0304600F067F81055000A1119A41C4870A4B2AC42F4D3D80705D0D0182038D15CC47FD454C17770BD10B5FF2000F0CAF90F49FF2048700E481021801D04
:4035000041800121417001700A490020C91C4870FFF7FAFE04000AD100F0DEF807210648FFF72CFA044807211830FFF727FA204610BD000068010020CC112E4030B5044648
:403540005B1C1804450C002308E0204600F024F8241D59005B1CA4B250529BB2AB42F4D330BD000070B500210A4D5B1E0AE0541864782602545C344346193480001D891C87
:4035800080B289B29942F2DB994202D1515C4019018070BD00102E40014940180088704700102E40014A80180180704700102E4010B50B490020487000F08EF8002000F0A7
:4035C00089F9002000F076F907210648FFF7D6F9044807211830FFF7D1F9002010BD00006B010020CC112E4010B506480078012803D102210448FFF7CFF902490020C91E48
:40360000087010BD6B01002070F02E4010B50B46062812D006DC01280CD0032801D1FFF7C7FF10BD0A28FCD00B28FAD105480078107010BDFFF75AFF10BD1146184600F089
:4036400065F910BD6E010020F8B5204DAC6A0127A0071F4E002816DA307806280ED1286A384328621B480069F903084381B219481030FFF791F9042000F006F913480221C8
:403680002830FFF77BF9E00711D0062000F0FCF80F49FF20C91E48707078002802D1686B38436863094801212830FFF767F9E0050BD53078042802D1052000F0E5F803489A
:4036C000FF2101312830FFF759F9F8BD40F02E406B01002000002E4010B503212348FFF75BF90120FFF766F920483038406A204C80076178800F890001431C480C38FFF737
:403700004BF96078002808D0401E022181401820FFF788FAC000083800E0B82081B21548FFF73AF91348032109021438FFF734F910481149B830FFF72FF9452189010F4812
:40374000FFF72AF90D480321001FFFF725F90C490C48FFF721F90B480B496038FFF71CF9084801218838FFF717F910BD70F02E406E010020D8102E4090890000041E2E4020
:40378000FF0F000058122E4020900000044800684007400F022801D0002070470120704700010B4000B5FFF7F1FF002805D009480168C908C900016000BD0748016A49081E
:4037C00049000162054801690122D2039143016100BD000000010B4040F02E4000002E400849087806280BD148780749002803D1486B400840004863C86A01221043C86284
:40380000704700006B01002040F02E4001480078704700006B01002002484078022800D0012070476801002000B50300FFF70EFC080D050D0B070507090D012000BD032032
:4038400000BD042000BD022000BDFF2000BD0000074A9168D26889B2064B92B2994204D105498A4201D1012100E000210170704780002E4033D000003FE30000014948709F
:40388000704700006B01002010B50446FFF7A6F8072C01D9FF2C01D102480470FFF798F810BD00006B01002001494870704700006801002010B5064A012805D01921C90221
:4038C0001046FFF769F810BD1D21C902F8E7000090002E4010B50A4A141D012808D009491046FFF759F808492046FFF755F810BD04491046891CFFF74FF80349491DF3E756
:4039000088002E4031D000003AE300000078074AFF2803D04C2804D9553803E01078087070474F3808701070704700006A01002010B50F4A002313600E4A13600E4B186027
:403940000E4801600E49012008600E490860000290600E490C4808600D4914300860FF381538506000F0BCF800F0CAF9002010BD8C01002074010020A0010020A4010020AA
:403980009001002080010020601100208401002098010020014610B50020002910D0094B1A689C685118A14209D25868196080188A0704D08A07920F891A091D196010BD19
:4039C000002010BD74010020F8B50024164E671E321F3D463168136806E01422624310328A58521C1BD0641C9C42F6D36A1C14D02C461422544322460C3288500C2148435F
:403A0000FFF7C8FF3168002808510AD031680020103408517068401C70602846F8BD2546E4E73846F8BD000084010020F3B50026F64381B000281BDB1E490968884217D863
:403A40000299002914D01B4F142204463F1D54432546396810354859401C09D0FEF7BEFF38682F1F4159C359994203DBFEF7B0FF3046FEBD214608310091465801590C2061
:403A8000704308180C220299FFF70DF90948761C001D0068C159B14200D100260549009A091D865008684159491C4151FEF790FF0020FEBD80010020002803DB0749096856
:403AC000884202D90020C043704704491422091D09685043103008587047000080010020F0B500200D4A451E0346171F50600FE014260146714314680E1DA3510C46166865
:403B0000083433511668083435511468401C635039688842ECD30020F0BD000084010020F3B50026F64381B0002841DB2349096888423DD8029900293AD0204F1422044669
:403B40003F1D54432546396810354859401C2FD0FEF744FF3868415900292BD0211D009146580C21005971430F46C1190C220298FFF799F811480021001D0068761C005960
:403B80000C34C0190160416081600C48001D00680159B14200D100260849009A091D865008684159491E4151FEF712FF0020FEBD3046FEBDFEF70CFFFAE70000800100206E
:403BC000FEB504460D4600201E49089E0860471E009001900290002C11D0486885420ED2002A0CD0002E0AD0642E08D808460C3001681C2068430C18207A002801D03846D5
:403C0000FEBD0120226020721846FFF7DDFE6060401C13D06681A6810A4827610C3067610179A94200D205710021684601810A462846029B00F040F82846FEBD002020721E
:403C4000DDE700008C01002038B50124009400F039F838BDFEB50027164EFF433D4600240EE01C20316860430818017A002906D04068FFF721FF002801D0254603E0641C6B
:403C80003079A042EDDA681C12D01C2130684D434419FEF7A3FE69466068FFF741FF0546FEF796FE002DD9D1216868468847D5E7FEBD00009801002038B50024009400F0D1
:403CC00001F838BD1FB500220C49541E0A60002811DB496888420ED808491C220C31096850430818406801A9FFF7A0FE401C02D0002004B010BD2046FBE700008C010020A0
:403D0000F0B50021114A4D1E174611710C3F0B46BD6016E008461C2460431668041D355114680646235014680836A3551468361DA353044616680A34335318301468491CAC
:403D4000255078688142E5D30020F0BD9801002038B500210091002811DB0F49097888420DDA0D4D04010C3529680859002807D0201D0818694600F05FF9002801D00020B2
:403D800038BDFEF72BFE28680F34015D491E0155FEF71EFE009838BDA8010020F7B582B00025ED43029800240E460560002A49D0002E47D02D48D21C02402D481746017879
:403DC0000C30006805E022018258002A0FD0641CE4B28C42F7D3691C3ED02C01211D40180191314600F016F900282BD101E02546F1E71F480C30016820460C300F521C486D
:403E00000C30016820460E300E5419480C30016820460F300E543846704300F0ADF814490C310968002808510CD00024009011E00F480C30016801980818009900F017F9A9
:403E4000002802D0012005B0F0BD0098C019641CE4B20090B442EBD30298054905600C310879401C08710020EDE70000FCFF0000A8010020F8B50D4600216A468C4611802E
:403E8000002839DB23490978884235DA214B04010C3319680A59002A2ED020460C300B5A801C0E5C184670438018954224D3854222D2002006E007465F43BF18AF4206D072
:403EC000401CC0B2B042F6D36046002814D0114E271DC8190C366A46294600F0F2F800280AD168460088012808D030682946C01900F0BDF8002803D00120F8BD0020F8BD63
:403F0000FEF76CFD30680F34015D491C0155FEF75FFDF3E7A801002003460020002B06D0034A5168906852884018511A19807047A801002070B5002400F0DCF80D4E002194
:403F400032460C3271600EE0200113680546195013680C355953AD1C13680F3059551368641C1954E4B230788442EDD31171002070BD0000A8010020014610B500200029CA
:403F80000CD0C91C064B8A08596892005C888A18A24202D898685A60401810BD002010BDA8010020F8B5002827DB19490978884223DA174C05010C342168485900281CD0C9
:403FC00028460C30085A009028460E300E5C401C0E5420682F1DC01900F064F800280CD12068002445590EE0094829460C300068C01900F03CF8002801D00120F8BD009853
:404000002D18641CE4B2B442EED30020F8BD0000A801002030B50D4604000BD0A800FFF7ABFF6060002805D000202570C0436080002030BD012030BD70B50D46040005D0B0
:40404000002D03D00220205E002801DA012070BDFEF7C4FC0221615E60688900405828606088401E6080FEF7B3FC002070BD70B50D46040007D0002D05D002212078615E61
:40408000401E814201DB012070BDFEF7A7FC6088401C00B26080616880000D50FEF798FC002070BD10B5040009D0227800216068FEF702FE0020C0436080002010BD0120A0
:4040C00010BDF0B500231D46002802D00224045F0AE00120F0BD46689F00F6598E4201D1012503E05B1CDBB29C42F4DA15700020F0BD0000054B11221A70054A1180064A07
:40410000044911600549086070470000A8010020AA01002090110020B4010020B00100200148007870470000BC0100207CB505460024FEF7CDFDA8796946087000A806228D
:4041400029460130FEF7AFFD0021684604F0ACFD0C2804D0072804D01F2804D004E0022402E0042400E0272420467CBD10B502280BD0032802D0042809D102E000F0EAF80D
:4041800005E000F0B1F9FF2801D100F0C1F9FFF73DFBFFF749FB10BD10B500F0E1F9FFF735FBFFF741FB10BD10B503240CF048FC002810D10CF0ECFB00280CD105F0FAFBED
:4041C000002808D100F0C4FB002804D104F0ECFF002800D10024024900200870204610BDBC01002070B50025044600280ED0A07901280BD8FEF76CFDA0790028204602D08D
:4042000002F0C1FF03E002F08BFF00E00125284670BD10B5FFF7FAFA012801D1FFF7FCFA10BD38B504460120002C20D0617801291DD800290BD0FF25E535FEF749FD284612
:40424000FFF7AAF9C0B22070072803D00EE0FF25CD35F2E70020694608706846FFF7F8FA69460878012801D108202070002038BD70B504460120002C1FD06178012902D957
:404280002278092A19D8002906D0FF25E53520780726092803D003E0FF25CD35F7E72670FEF716FD2078082808D00020FFF712FB21782846FFF776F9002070BD0120FFF722
:4042C00009FB2670F4E7000070B50D46040001D0002000E00548002802D0012102F088F92946204602F0D6FC70BD00001413002038B505460020044600902246694628465C
:4043000000F0D2FE0098002801D00CF07BFBA878214602F079FAA878214602F068FA641CE4B2052CE9D338BD064A02235188891C89B25180814201D8102900D953805088A3
:4043400070470000BE0100200148407870470000BE010020F8B55E4CFFF758FA01283FD15C48007800283BD002F018FC0028FAD004F0A4F90028F6D0574EB07E0028EED1B8
:4043800070780025002878D0000707D5AC20FFF703F9070B00F058F9384321D14E484178684604F07BF84D4F06462079B9784018C1B2B14271D802F0F1FB002810D0464C8A
:4043C000203402F013FA6846008802F03FFA02F0F1FA43490988884203D10120FFF754FA74E04049012008703B48807B00282BD04034608A002827D0E07E002824D1A1203C
:404400000001FFF7C9F8208A4000B04218D97878002815D1A12424012046FFF7BDF80221884301462046FFF7BDF8FF24F1342046FFF7B2F80321090201432046FFF7B2F8F1
:404440003878002800D03D7002F064FA0120FFF715FA244C08E0FEF71BFAFFF7D7F906282CD02078002829D0FFF7D0F9062825D020780128EFD021E0FFE702F08FFB002879
:4044800024D0142002F0E2F9164C0120207002F041FA0020FFF7F2F909E015E0FEF7F8F9FFF7B4F9062809D02078002806D0FFF7ADF9062802D020780128EFD020780128E5
:4044C0008BD1FFF76FF925700020F8BDFF20F8BDE012002068010020F4120020C2010020D4010020BE01002010B50848FF244078002809D102F052FB012805D1FFF774F8BA
:404500000720FFF7C1F90024204610BDF412002008B5FFF77BF9012801D0002008BD02F03DFB002803D00D48817E002901D0FF2008BD417800290FD0684603F0AFFF022890
:4045400006D96846008802F081F9012002F0E8F90320FFF799F9E0E70020F7E7F412002038B5FFF753F9042819D0052817D006281AD0032842D007280AD100206946087032
:4045800002460120FFF742F8FFF740F90128FBD138BDFEF77DF9FFF739F90128F8D0FFF735F90128F5D138BD02F0D8F905E0FEF76FF9FFF72BF9012803D0FFF727F9012863
:4045C000F5D1A12424012046FEF7E6FF01220E4983079B0F0A70022BE5D149880029E2D0104301462046FEF7DDFF2046FEF7D4FF410849002046FEF7D5FF38BD02F0B2F9C2
:404600000120FFF741F938BDC2010020F8B50646002402F0D1FE0546304602F0E5FE00210346012632468A40174610462F401840002F03D0002801D1224394B2491CC9B209
:404640000529EFD32046F8BD70B500252C460A4E03E0002C01D0002000E030460079002803D02046FFF7D2FF0543641C2406240EEFD0284670BD0000141300201CB500206E
:40468000694648706846FFF7CCFD01AA69460A20FEF7BCFF6946042008561CBD10B50C4601F062F8002809D00179002906D0C1788078224602F0A4FB002010BD022010BD06
:4046C0000148007870470000E01200204030C07E002800D00120704700B500F001F800BD88214843064940186030417F491CC9B24177052901D300214177C8B27047000088
:40470000F412002013B501F02FF804000BD001F076FC002807D0214601AA0A310620FEF775FF00201CBD02201CBD000010B50C4601F01AF800280AD001F061FC002806D0FA
:40474000224604490A20FEF761FF002010BD022010BD0000C9120020F3B581B0074601460026029802F020FE0446002F01D0002500E0154D002D21D0284601F02BF8032C71
:4047800004D13946029802F039FE06463846029902F02DF8032C06D0002C10D00121384601F098F903E03146384602F05BFF284601F004FF0221284601F01AFFFEBD3846D9
:4047C000029902F014F8FEBD1413002070B50446002503F0D7FD002801D00C2070BD2078611C02F0FDFBFF2802D01F25284670BD02F04AFCFF2804D02178621C01F074FFEC
:40480000F4E70725F2E710B503F0BCFD002801D00C2010BD02F0BCFB002010BD70B50D46044610210CF02EF81021601806460CF029F8334610221946204603F0CFFD102118
:4048400030460CF01FF802202870204604F0F6FB70BD70B504464078217802028006850FE0781143A67809050002090D0643084600F07AFF002812D0022D10D0032D0ED088
:40488000002E08D00179092909D0002907D0214600F0BFF870BD0089002104F0C5FA20460CF0B0F870BD0020704770B50446002503F068FD002801D00C2070BD2078611C74
:4048C00002F08EFBFF2802D002F0DFFA00E01F25284670BD10B504F067FC00F02DF9002010BD000010B5014605220A48FEF7DBF9084905220846A038FEF7D5F900F082FC7E
:4049000004488022B038C17B1143C17300F04AF910BD0000A413002010B5044600786178E2780843A17811430843217908436179084305D003F018FD002803D00C2010BD6E
:40494000122010BD204602F01EFC002010BD000010B5044803F03CFE02F0A0FA00F004F8002010BDB0120020F8B5124D00266E706E736E716E76AE76EE766E75AE70EE70B9
:40498000AE712F46EE730120B03778723F2078719B20B87103F0E0FA01F012FB0024204601F0DEFA641C2406240EF8D03E72FE71AE73F8BDF412002070B505460E460846F5
:4049C00002F0FAFC0446304602F00EFD0121A9400A46224001400A4301D0012070BD002070BD10B50446084602F0FEFC0121A140014201D0012010BD002010BD10B5FEF766
:404A000005FF032804D101F0ADFF0120FEF73CFF10BD70B5044600790D4609281CD000281AD020464030817E491C8176204601F0C5FDA078FFF750FE06460246294620463E
:404A400000F00CF8002806D1A0783146FFF73CFC28460BF0D7FF70BD0846FAE7F7B5054648780C468006870FC8788978000282B0014368468180284601F0D6FA060007D052
:404A800021462846049A00F0BAFA304605B0F0BD384600F09BFB0746034601AA2946204600F0B4F968468088231DC0B20090A878FF22049902F0A8F8684680883B46C2B23D
:404AC000A878049902F010FCDFE770B5002500242846FFF79BFD060010D03046E040C007C00F07D02146284601F074FE21462846FFF732FE641CE4B2052CEED36D1C2D06EB
:404B00002D0EE4D070BD000070B50024094D03E0002C01D0002000E028464121095C012901D100F036FA641C2406240EF0D000F039F870BD1413002010B502F0AFF9FFF703
:404B400013FF0BF0C7FF002010BD0000F8B5002403F0A4F9012800D10224114F00203E46203601230425082203E0002801D0002100E031460979002907D001290BD002291D
:404B80000BD0114681402143CCB2401C0006000EEBD07C70F8BD1C43F7E72C43F5E70000F412002070B5144E0024F07BC00921D03546203503E0002C01D0002000E02846B8
:404BC00001F028FA012814D0641C2406240EF2D0F07B4006400EF073002403E0002C01D0002000E0284600F0D4F9641C2406240EF4D0002070BD0000F412002010B5FFF798
:404C0000A5FF10BD10B50B4681791943817103D08078114602F010FB10BD10B582798A43827102D1807802F01FFB10BD0346084800B5834209D8184600F096FD002804D0C4
:404C40000089984201D1012000BD002000BD0000FF0E0000074A9179491C8906890E917138220A4092014907090E11430843024908407047F4120020FF0E0000C006C00E01
:404C800070470000F8B507460E4600240D4803E0002C01D0002500E005462979002905D0641C2406240EF3D00020F8BD204601F057F92E712046FFF7CDFF28813C7001204E
:404CC000F8BD000014130020F7B53D20405C88B016460C46002829D030786946087200252046FFF7F3FC012800D00125204603A938300191009023460327A17E34332A4687
:404D0000206A03F085FC02A8089900900B46019120463A4603A9243003F042FB02466846007A3070204601F007F910460BB0F0BDFFB587B00C4605461078694608723D20E6
:404D4000005D1746002826D000262046FFF7BEFC012800D00126204603A93830019100902346A17E34333246206A03F051FC02A80090291D019120462B1D03A924300A9ACE
:404D800003F00EFB02006846007A388002D1204601F0D2F810460BB0F0BDF7B53C20405C88B015460C4600280CD0287869460872002806D000262046FFF788FC012803D00D
:404DC00003E01F200BB0F0BD0126204603A938300191009023460327E17E34333246E06903F016FC02A8089900900B46019120463A4603A9243003F005FB02466846007A40
:404E00002870204601F0A2F81046DBE7FFB505463C20405C87B016460C46002810D0084601F002F901280BD0308869460883002809D000272046FFF749FC012805D005E011
:404E400000200BB0F0BD0220FBE70127204602A93830019100902346E17E34333A46E06903F0D6FB06A80090291D019120462B1D02A924300A9A03F0C5FA02466846008B8D
:404E800030806846008BA870000AE870204601F05DF81046D5E7000010B518490446484028D0002101231A468A40904221D0491C2029F8D300212046C840C243520618D062
:404EC000400616D0491C1929F5D3A0B2210C020AC3B2884201D193420BD01F21204600F07AF9182805D8A00E062100F074F9022801D2002010BD012010BD0000D6BE898EF0
:404F0000002801D0002000E003484030C07F012800D0002070470000141300200146002049070ED50021084B03E0002901D0002200E01A461279022A04D0491C0906090E04
:404F4000F3D0704701207047141300200146002049070ED50021084B03E0002901D0002200E01A461279022A04D0491C0906090EF3D07047012070471413002010B504468D
:404F800080346068002803D00BF050FD0020606010BD38B50546002000902846FFF796FB01281FD1284601F02AF800281AD028792C46C01E40340300FEF748F8070505113D
:404FC000110511141100284601F034F8012806D068460BF0BDFC002805D0012008E060780028FAD038BD2846009902F075FC0220607038BD40308170704701717047920090
:405000001018C1667047000010B5002801D0002000E00348002802D0008903F079FF10BD1413002010B5002801D0002000E00448002804D00179072901D100F085F810BDA3
:405040001413002010B54121095C012901D1FFF7A0FF002010BD000070B50546008A00281ED010491122897A1140C90618D5294640314A8A098A521C4A4392B2D10800D103
:405080000121540801E0621A94B2A042FBD9FFF747F8012804D1298AA878224601F048FE70BD0000A012002000230B60052A04D292001018C26E0A60C3667047FEB50646AF
:4050C0000020009001908020855968460BF040FC002801D00720FEBD20213046009FFFF79CFD34464034A08AE080608AA080208A2081304602F0C0FDA88C218A884207D1D9
:40510000288A618A884203D1688AA18A884203D0F07920210843F071688AA082288A6082A88C2082E98CE182FFF7FEF8E081208AFFF70AF960733946304602F0F5FB012013
:40514000A0700198FEBD000038B5044600200090A079002814D14020015D052901D00E290ED168460BF0F4FB002809D12046009902F0BCFC03481021C28A2046FFF742FD45
:4051800038BD0000A012002010B50446807802F091FD204601F0AEF8002010BD10B50B4604460146184602F05DF9002802D020460BF032FC10BD13B5044601AA11460620DA
:4051C000FEF724FA6846818861811CBD002800D102207047704770B500231A46491E0CE00446D440E507ED0F541C0646E640F407E40FA54200D05B1C521C8A42F0D3D8B2DB
:4052000070BD000030B50021124C0A46A05C002308E0C50701D0491CC9B201290AD840085B1CDBB20028F4D1012903D8521CD2B2052AEBD302290BD207488118C87B01228A
:40524000082B03D29A400243D0B200E01043C87330BD0000A4130020F41200207FB504468034616805460E46183108226846FDF71AFD31462031082202A8FDF714FD102195
:4052800068460BF0FFFA6068102108300BF0FAFA60682B46083024331022694603F09EF87FBD10B504460821FFF7B7FC10212046FFF7B3FC2079052822D0062820D008289B
:4052C0001DD12189002003F095FD072020712046FFF7FCF9014620464030012916D00E21017000210176204601F088F82046FFF745FE2046FFF7B0FE2046FFF7A3FE10BDB9
:4053000020890122002103F059FDDEE70521E7E7FFB581B01F4604460821FFF77EFC10212046FFF77AFC2079082803D0092804D0042203E00422012501E0092200252046C1
:4053400000F054FE264600204036307022712046FFF714FE0398002D02D0012808D00BE001280AD120890022029903F027FD04E02189029803F03EFD012700203076012FCD
:4053800007D0204601F03AF82046FFF75BFE05B0F0BD02983073204602F0E1FB054605480121C28A2046FFF72DFC002DEFD109202071ECE7A012002070B50C460546FFF776
:4053C00085F9012809D108212846FFF726FC0023012221462846FFF79BFF70BD10B5044600F004FE2046FFF7C9FD00214034217010BD70B505461A24FFF768F9012809D187
:4054000008212846FFF709FC0023012221462846FFF77EFF70BD000038B504460020009068460BF095FA002801D00D2038BD2046009D00F01BFE2946204602F001FB0548C9
:405440000821C28A2046FFF7DDFB062040342070002038BDA0120020F8B50446002000900E4668460BF074FA002801D00D20F8BD204604213430009D00F072F984200059A1
:405480000821183000F06CF9012E02D1204600F0EDFD2946204602F08DFA05480821C28A2046FFF7AFFB0220403420700020F8BDA012002010B50446FFF7D0FE03204021AA
:4054C0000855204601F07AF810BD10B50021FFF7C3FF10BD38B504460021684600910BF037FA002810D12046009A00F07FFD1146204602F0B0FA05480821C28A2046FFF79F
:4055000081FB07204034207038BD0000A012002038B504460021684600910BF019FA00280FD12046009902F00FFB06480821C28A2046FFF767FB042140200155204601F0A2
:405540003DF838BDA012002010B5FFF7AAFE10BD00787047F8B50025002801D0002400E0194C002C29D0204600F049FD002824D02079032822D0052822D026464036B18ACD
:40558000A07801F04DFEB078012816D10021204601F098FF274680373868002802D00BF045FA3D600020B0702046FFF74BFD2079072802D12046FFF74FFDF8BD042000E0DB
:4055C00006202071F8BD00001413002010B54C22115400F046F810BD10B50446FF21FFF71CFB09202071A07801F04AFE10BD000038B5FF216A461180002801D0002400E006
:40560000064C002C08D011460620FDF7FFFF684601882046FFF7CFFD38BD00001413002010B504468079002809D022214C200155FF212046FFF7F1FA204600F012F810BD68
:4056400010B5037902464032002B03D01173092B02D003E0002100E02221117300F001F810BDFEB504460089002701902781207926464036002817D0012815D002280AD1C3
:4056800012E002AA6946204601F0DAFE002807D100980BF0C1F9204601F0FAFE0028F0D02046FEF725FEB776254680352868002802D00BF0BBF92F606868002802D00BF092
:4056C000B5F96F60317B002902D0019800F041F8A078002101F0E8F8A07801F033FAA07800F080FE0B20FFF789FA00F01DFDFEBD70B50E46054602F0B1FE04460670284602
:40570000FEF7E4FF014601204140204661700C3001F0B0F9002D10D02889608028464030C1782171002E10D169796171018AE180418A2181808A608107E01820FDF72CFF0F
:40574000C005C00F207100206080204603F0FBFA70BD0A4610B50146002003F0F1FB10BD10B50AF06BFE10BD00B50146FFF786FA002801D0002000E00348002802D0028931
:405780008A4200D0002000BD1413002038B5044680346068002806D168460BF0E9F8002801D100986060606838BD000010B5014600F03AFC0128887802D0FEF791FF10BD5F
:4057C00088214843024940186030007F10BD0000F412002070B5054604464035A87F012811D1A1788820084A484380186030067F3046FFF7E1F8002805D10220A877A07888
:40580000314601F055FA70BDF412002010B50E4CE079002816D0FFF758F90C48827FC17F808B00F095FC01280CD10020E07101F0B1F80446AC20FDF7AFFE010B02D0204664
:4058400000F0C8FA10BD0000A4130020F412002070477047490510B5490F0B00FDF7F6FB060704080C0C0F073E21FFF7AFFE10BD0821FFF7E5FE10BDFFF7F3FE10BDFFF754
:40588000CFFE10BDF8B507460025002D01D0002600E0204E01F034F83046403044890021418101F053F8304600F0A9FB01282BD1A00702D52846FFF74DFEE00602D5284647
:4058C000FFF796FEA00601D5FFF7FFF8600601D500F0BEFB200602D5284600F01DF8600702D5284600F0DAFA380402D52846FFF799FB780402D52846FFF786FBE00703D0F3
:4059000021463046FFF7A6FF6D1C2D062D0EBCD0F8BD00001413002010B5002801D0002000E00648002808D0014640318A78012A03D1C98A807801F0BFFB10BD14130020A1
:4059400070B505460088FFF70FFF040025D000F056FB002821D0207909281ED02046FEF7B5FE0646E07920210843E071204601F0C1FD002813D0294600F012FE4220005D42
:4059800000280ED02325E079DF210840E0712946204601F0FEFD284670BD022070BD072070BD002E05D02046FFF788FB0500EAD1F1E70C2070BD000070B50E460C2500F03B
:4059C00069FD040011D0002522892946094802F079FF02212046FFF78BFEA07800F045FF2046FFF73EFE022000E000203070284670BD00000E200000F8B5044600F04AFDBD
:405A0000002801D00C20F8BD02216846FFF73AF9012850D1684600782D4F002801D0002601E03E462036002E45D035460020403528706870A8700620FFF7E0F8208A688269
:405A4000228AE189A08902F031F928820246608AA882E18AA08A02F0FBF8E882288AFEF773FC6873288AFEF75FFCE881184806228778A11DA830FDF716F9207901281CD0B7
:405A80006079E870A01D01F066FBFB20074010488770217E012915D0C278FB210A40C270B178204601F090F9012001F039FC3046FFF76AFBF8BD0920F8BD0020E870042025
:405AC0000743E4E7C17804221143C170E8E70000F412002070B50D46124A010001D0002401E014462034002C1BD0204600F09CFA01280AD18820484380186030007FFEF789
:405B00005BFF002801D101F0B1FF20464030817E491B8176204600F051FD2089294603F083F970BDF412002070B503460088FFF71BFE040013D000F062FA00280FD02079EA
:405B4000092819D02546997840352973204602F006F80646A878012803D0AA8A02E0022070BDEA880A20424301212046FFF74AF8002E01D109202071002070BD0EB500228E
:405B800017216B460292198100905A810120029B00990AF0BDFF0EBDF8B5184E0024F079002820D10025AC20FDF7F6FC000B21E0204600F093FFFDF7EFFC07462A46214604
:405BC00000F0C6FA01280FD00D48012187838577C477F171002D01D0002000E02030002801D000F0EBFCF8BDAC20FDF7D5FC000B641CE4B20028DBD1F8BD0000A4130020EE
:405C0000F412002010B5C0060ED50020084A03E0002801D0002100E011460979022904D0401C0006000EF3D010BD00F003F810BD1413002070B5144D002801D0002401E026
:405C40002C4620342179022904D0002901D001F017FB70BD264601224036F27600F05AFF032020710820FEF7C9FF002030700121F01C00F016FF00212046FFF739FDA87B83
:405C8000401CA87370BD0000F412002010B50C46002121700088FFF767FD03000BD000F0AEF9002807D009481121807A0840C00603D4112010BD022010BD022020701A8A56
:405CC0001889002103F058F9002010BDA012002070B50088FFF748FD040008D000F08FF9002804D0E079C10903D0002070BD022070BDC1068025002908DA2843E071084892
:405D00000221C28A2046FEF77DFFEEE7204600F0E3F90028ECD1E1792943E17170BD0000A0120020F8B50F46002100910088FFF71BFD040012D000F062F900280ED0E07940
:405D4000410641D4617E02264A07002A08DB8907402500291ADA2843E07135E00220F8BD02F07CFB0021017021894180A1898180217E4170E189C1803E700546017813484F
:405D800002F05AFE284603F09BF81DE0204600F051F9012806D068460AF0DAFD002803D00720F8BD2A20F8BDE07900992843E071204601F0FDFE607E04213043607604481C
:405DC000C28A2046FEF71EFF0020F8BD1D040000A01200203EB500220F236C460292238100910190628169460EC900200AF090FE3EBD0000F8B50446002000902088FFF773
:405E0000B3FC05001AD0FEF761FC002812D02248807AC00710D0284600F0F1F800280DD0287903280CD004280AD0072808D0092828D103E00C20F8BD1120F8BD0220F8BDB1
:405E40002F464037387801281CD02846FFF79EFC060019D00822211DFCF725FF3046A1782030017261881022090A417221460C311838FCF718FFB878002807D001203870DC
:405E80000098F8BD0D20F8BD0720F8BD284600F013FA0090F8BD0000A012002010B5002801D0002400E0094C002C0ED0204640304178022904D1002141702046FEF706FC76
:405EC0002046FFF7BFF8FEF71FFE10BD1413002070B503460D460088FFF746FC04000BD000F08DF8002807D012481121807A0840C00603D4112070BD022070BD20464030A7
:405F0000418A008A491C41430804C10C5888884201D2122070BD20822079072802D12046FFF79AF8022028702089002103F04CF8002070BDA0120020016A491C016204D161
:405F4000817E491C4906490E81767047C169491CC16104D1C17E491C4906490EC176704770B500250646002801D0002400E0114C002C1CD0882200212046FCF79DFEA670CE
:405F800000202646207140363070204600F02EF8204601F079FA084820820848B577807A1121084000D001202075012070BD002070BD000014130020B80B0000A012002089
:405FC00010B50020074B084AFF2119541418401CC0B221740428F8D31F2119541018017410BD0000A4130020F4120020002101628176C161C176203001774177704700796D
:40600000002805D0012803D0022801D0012070470020704740304078012803D0022801D000207047012070474030807F002800D00120704740300078002807D0012805D0CB
:40604000052803D00E2801D0012070470020704710B500F09FFC0446AC20FDF79DFA010B02D02046FFF7B6FE10BD000070B5054604464035A87F002823D1FF206075A07840
:406080008821144A484380186030417F8823491CC9B24177A078584380186030052901D300214177A0788821484380186030467F0677A1783046FEF77FFC002802D001209D
:4060C000A87770BD0220A877A078314600F0F0FD70BD0000F412002038B5002105460091FFF7A8FF012806D068460AF031FC002803D0072038BD2A2038BD2846009CFEF7A4
:40610000E5FA00280BD02146284601F07BFC05480221C28A2846FEF775FD002038BD112038BD0000A012002070B50024074D03E0002C01D0002000E02846FEF783FF641CC0
:406140002406240EF4D0002070BD000014130020F0B515468207920F85B0C004C00E02926A469080002D01D0002400E0514C002C29D0084600F0B2FC039068468088002805
:406180000BD00298012845D0022843D003280CD03D20005D012872D086E00398FDF7FCF901462046FFF707F87EE00020029002A80AF0AEFB002807D03D20005D012876D1B1
:4061C0002046FFF7B9FE72E06846029E8388324600210398FDF76EF90398FDF7DDF901462046FEF7E8FF284600F049FB01AA21463046FEF769FD002806D030460AF0F8FB7E
:406200003D204C21085528E0F5773146204601F009FA4CE000200090278968460AF068FB002802D0002005B0F0BD6846009E8388321D00210398FDF73DF90398FDF7ACF91F
:4062400001462046FEF7B7FF284600F018FB25464035287E00280CD103E02046FFF7BCF925E001AA21463046029BFEF761FD002806D030460AF0B2FB3D202873EDE710E082
:406280000298FEF7A7FF390A000101433770717068468088B070000AF0703046FFF76EFC05E02046FFF748FE284600F0E8FA0120B9E700001413002070B50179054603299E
:4062C00004D0042904D0072908D109E0052400E006240121FFF7C0F8002805D00D2070BD0824FFF799F8F7E7284600F067F92C71002070BDFEB5064602F0B0F8044602F06F
:40630000A6F8074602F099F8054602F0ABF8029002F0BAF801902570280A6070280CA070280E3546E0704035687B20716771380AA071380CE071A87B2072E8892849000A22
:406340006072287CA072288A0522000AE072A87C2073688A000A6073287DA073A88A000AE073204610300091FCF79DFC0027F770B078009900F09CFF777101984101029899
:4063800067750143A175080AE07504E0298A308849004018308000F00DFB3188042200F0E7FB0128F2D0012031884002FDF7FAF81821204600F0ECFCA88A298AC000FCF7FB
:4063C000D1FB81B24120C000FDF7ECF8B07800F031FAE98AB07800F06FFE00F03DFAFEBD0413002010B5044A917B002901D0491E9173FFF7B5FD10BDF4120020F8B5074638
:4064000006464037B87F00283DD0B0788821009048431F4945186035287F0099FEF7E1FA012831D0287F401CC4B2052C00D300240020B877FF276F772F77A877024601465D
:40644000009800F0B3FD717DFF2903D0304600F0DCFF777501F00AFB00252F462246694630460097FEF720FE0099002902D03046FEF7CFFA641CE4B2052C00D300246D1C78
:40648000EDB2052DEAD3F8BD0320B877F8BD0000F412002000B5022000F002F800BD000010B502460021084B03E0002901D0002000E018460479944204D0491C0906090E80
:4064C000F3D0002010BD000014130020F7B50646087982B00C46092807D0A078F0770846FFF7A2FD012806D010E030460AF094FA022005B0F0BDA1788820284A4843801877
:406500006030007FFEF758FA012810D0A078FEF7F7FC01280BD037780121304601F0C7F925462035062F36D00B2F0FD107E06846027C21463046FEF731FE0D20D9E7204684
:40654000FEF7C4F8012801D1002028772046FFF72DF9054604AA21463046FEF71EFC01205F2108556946087C0090A07833463A46294600F049FB69460A7CA07803232946F2
:4065800000F0B2FEA0782946FDF79EFE30460AF043FA0020ADE70120D7E70000F41200208A8802804A884280CA8882800A89C2808A890281498941817047000010B502467F
:4065C0004032937F0021002B03D1927E002A00D00121064AD279002A00D000210279092A00D10121807800F0A9FE10BDA4130020704770B50D4602280DD004280DD00828D2
:4066000008D1A8241146B020FCF7CCFF29462046FCF7C8FF70BD3820FAE75020F8E710B501460820FCF7BEFF10BD000010B50446FF20F130022C02D0042C05D102E0FF2085
:40664000D93001E0FF20DD30002200F095FE1020FCF7A2FF0349A043088001461020FCF7A1FF10BDC601002010B504461020FCF793FF0449A043088001461020FCF792FFAF
:4066800010BD0000C601002010B50446022804D0042C05D0082C07D111E0FF20D93001E0FF20DD3000F05DFE1020FCF775FF05492043088001461020FCF774FF10BDFF20FE
:4066C000F130EFE7C601002010B504461020FCF763FF04492043088001461020FCF762FF10BD0000C6010020F8B507460120B84085B214460E46012229467C2000F03CFE21
:4067000032462946782000F037FE6078217800020143E078A5780002054360792679000206430C2047430D2080013C182046FCF739FF241D29462046FCF734FF201D314643
:40674000FCF730FFF8BD401880B270478B00034310B5D10191201943C000FCF723FF10BD70B505460C46407829780002014341200001FCF717FFE878A978000201430A4805
:40678000FCF710FF60782178000201438320C000FCF708FFE078A1780002014302480830FCF700FF70BD00001404000070B50D46044681B201208002FCF7F4FE210C04485D
:4067C000FCF7F0FE81202946C000FCF7EBFE70BD0404000010B50C460146B020FCF7E2FEFF2021462D30FCF7DDFE10BD704710B50C460146B020FCF7D5FE204600F0E6FD74
:406800000021FCF7CFFE10BD70B50C46054600F005F821462846FFF7DDFF70BD10B50C460146B020FCF7BEFEFF2021462930FCF7B9FE10BD10B50146B020FCF7B3FEFF2055
:40684000012220211D3000F097FD10BD10B50146C020FCF7A7FE10BD10B544210020FCF7A1FE0420FFF730FF10BD10B50146B020FCF798FE45210020FCF794FE10BD010293
:4068800010B54D310020FCF78DFE10BD10B50C460146B020FCF786FEFF202530FCF77CFE001980B210BD000010B504020029014608D0B020FCF776FE214675310020FCF722
:4068C00071FE10BDB020FCF76DFE512000214001FCF768FE00210348FCF764FE21467631ECE70000240A000010B554210020FCF759FE10BD10B553210020FCF753FE10BD57
:4069000010B5034908884880FFF7AEFE10BD0000C601002010B550210020FCF743FE10BD10B50E2400280CD0C420FCF735FE20430146C420FCF736FE51210020FCF732FED2
:4069400010BDC420FCF728FEA043F1E710B502484088FFF7B9FE10BDC601002010B5FCF73FFF10BD10B552210020FCF71BFE10BD884201D8081A03E00022D243101A401805
:4069800080B2704710B50B4602460021F820FCF791FD10BD10B5B020FCF7FEFDC0B210BD10B50146B020FCF7FDFDFF202530FCF7F3FD10BD10B5C820FCF7EEFD10BD10B53D
:4069C0000C46002812D05820FCF7E6FD2070000A60705C20FCF7E0FDA070000AE0706020FCF7DAFD2071000A607110BDFF20C130FCF7D2FD2070000A6070FF20C530FCF707
:406A0000CBFDA070000AE070FF20C930E8E7000000B5024A00F004F800BD0000FF7F000000B51346FFF7A4FF984201D8022800D2002000BD10B50146B020FCF7B3FD024819
:406A4000FCF7AAFD10BD0000080A000010B50146B020FCF7A7FDFF202130FCF79DFD10BD10B55420FCF798FD10BD10B53C20FCF793FD10BD70B504466820FCF78DFD0646A1
:406A80006C20FCF789FD05467020FCF785FD2670310A6170A570290AE1702071000A607170BD10B50446012905D01820FCF774FDC00B207010BD4820FCF76EFD8007C00FBF
:406AC000F7E7000010B50146B020FCF76BFD0248FCF762FD10BD0000280A00000120C0027047000010B50146B020FCF75BFD0248FCF752FD10BD00000C0A000010B50C469F
:406B00000146B020FCF74EFD0321A0014902401810BD000010B504460146B020FCF742FD8821074A61438A18FF206032507710770020907702460146204600F037FA10BD2A
:406B4000F412002088225043074A10B58018FF21603041770177002181770448418EFF201D3000F0FEFB10BDF4120020A012002010B50023884201D8081A03E00024E443FB
:406B8000201A4018044980B2884201D8824200D90123184610BD0000FF7F000010B5C420FCF7FAFC0006C00F10BD000010B50348FCF7F2FCC007C00F10BD00002C0A0000F9
:406BC000F8B503465078167800020643D07895780002054350791779000288240743002900D098241946B020FCF7DCFC31462046FCF7D8FC201D2946FCF7D4FC20460830AE
:406C00003946FCF7CFFCF8BDFFB581B014460D4606460A9FFFF772FF3B460021049AFCF7A1FC02484019845505B0F0BDCA01002070B506460D4611242520A401082140018E
:406C4000FCF7B0FC2B46324600212046FCF78AFC70BD70B5212405466401FFF74BFE10232A4600212046FCF77DFC70BD10B5044640782178000201438F20C000FCF792FCAD
:406C8000E078A178000201430148FCF78BFC10BD7C04000010B50C460146B020FCF782FC802021460143FF202930FCF77BFC10BD70B50D460146B020FCF774FCFF241D340E
:406CC0002046FCF769FC01090901FF202943013001432046FCF766FC70BDF8B500242646012807D0032802D0052808D105E002240A2604E004240C2601E004240D26492775
:406D000001463F013846FCF74DFC25204001FCF743FCC5B228462042F7D0252031464001FCF740FC00213846FCF73CFC2846F8BD70B50D46044601461646B020FCF732FCDD
:406D4000512029464001FCF72DFC31460648FCF729FC032189030820FFF796FC210275310020FCF71FFC70BD240A000070B50D4604460146B020FCF715FCFF202946193093
:406D8000FCF710FC21024B310020FCF70BFC70BD024610B50B460F2000218001FCF7E2FB10BD70B5491E8CB205460146B020FCF7F9FBFF2021461930FCF7F4FB29024C31B6
:406DC0000020FCF7EFFB70BD10B50446027E40794901400010432279D200024311434820FCF7E0FB21884020FCF7DCFB61884420FCF7D8FB10BD10B5F820FCF7CDFB10BDF0
:406E000070B588251446002900D098250146B020FCF7C8FB2846FCF7BFFB2070000A6070281DFCF7B9FBA070000AE07028460830FCF7B2FB2071000A607170BD10B51446CA
:406E4000024611200B4680010021FCF777FB012C01D1FFF749FD10BD10B504460920C001FCF79AFB2070000A60700448FCF794FBA070000AE070FFF737FD10BD8404000097
:406E800010B5F820FCF788FB10BD0121814010B589B200227C2000F06FFA10BD70B53F210220FFF7C3FB1F210420FFF7BFFBFF210820FFF7BBFB3020FFF7D6FB80210020B0
:406EC000FCF770FB002211460320FCF79FFB2F4DFF20E98DD930FCF765FBFF20298EDD30FCF760FB0024FF26F1362146B020FCF759FB298F3046FCF755FB2046FFF722FE92
:406F0000641C2406240EF0D0FF20A98FF930FCF749FB1E481030044600F002F9204600F032F900F035F8194CB82040346188FCF739FBA188BC20FCF735FBE188C420FCF75C
:406F400031FBFF20698EE130FCF72CFBA12000210001FCF727FB3E20FFF7B6FBFFF7CAFC93200721C000FCF71DFBFFF7BDFCFF210131AC20FCF716FB832000218000FCF73D
:406F800011FB5B210020FCF70DFB70BDA012002010B500217C20FCF705FB00217820FCF701FB74210020FCF7FDFA10BD70B50D4601461446B020FCF7F5FAFF261D363046ED
:406FC000FCF7EAFA01090901FF20294301308143002C01D1102041403046FCF7E3FA70BDF3B589B0FF2001900D208001009048780D7800020543C8788E7800020643487954
:407000000979000201437C200791FCF7C5FA06907820FCF7C1FA059074210020FCF7C2FA18480024049026E00120A04087B20098FCF7B2FA03900098FCF7AEFA029000984E
:40704000FCF7AAFA039A29465140029A72401143079A424011430BD10698074208D00598E040C1070998C90F814201D1019405E0641C0498E4B20078A042D5D801980BB00E
:40708000F0BD0000E012002070B5FF257C20FCF783FA0849002401230A7805E01946A140014205D0641CE4B2A242F7D8284670BD2546FBE7E012002010B50C460146B02073
:4070C000FCF770FAFF2021460D30FCF76BFA10BD70B50C4601461D461646B020FCF762FAE92021468000FCF75DFA75203146C000FCF758FAEB2029468000FCF753FA70BDFD
:4071000070B50C4601461546B020FCF74BFA21468420FCF747FA29468020FCF743FA70BD10B504464078217800020143FF20C130FCF738FAE078A17800020143FF20C530DD
:40714000FCF730FA6079217900020143FF20C930FCF728FA10BD10B5044640782178000201436820FCF71EFAE078A178000201436C20FCF717FA6079217900020143702076
:40718000FCF710FA10BD10B5044640782178000201435820FCF706FAE078A178000201435C20FCF7FFF960792179000201436020FCF7F8F910BD10B50220FFF755FA00229E
:4071C0002021302000F0D8F843210020FCF7EAF910BD10B50446012000F0A2F862782021302000F0C9F842210020FCF7DBF90220FFF76AFA10BD10B504464179007940002C
:407200000843A179C90001433020FCF7CBF921882820FCF7C7F961882C20FCF7C3F910BD10B50C460146B020FCF7BCF9FF2021460530FCF7B7F910BD70B505468800052161
